:100000000C94E7000C94D20E0C94AB0E0C940F01E0
:100010000C940F010C940F010C940F010C94F90E29
:100020000C940F010C940F010C940F010C940F0110
:100030000C940F010C940F010C940F010C940F0100
:100040000C94100E0C940F010C940C110C94E610EF
:100050000C940F010C940F010C940F010C940F01E0
:100060000C941F0C0C940F015B43616C69625D0082
:1000700043616C6962726174696E672E2E2E007521
:1000800070646174654D6F6465282920636F6D70BD
:100090006C657465007570646174654D6F64652886
:1000A00029005B54415245205D000243616C696246
:1000B000726174696F6E4D6F6465282920636F6D7E
:1000C000706C657465006C6F616465642063616C5D
:1000D0006962726174696F6E20666163746F722009
:1000E0000073617665642063616C69627261746932
:1000F0006F6E20666163746F72200043616C696289
:10010000726174696F6E4D6F646528290073657440
:10011000757020636F6D706C6574650062757474C2
:100120006F6E20697320636865636B656400656E3C
:10013000636F6465722069732073657475700070F5
:10014000696E7320617265207365747570007365E4
:100150007475702829006C6F6F7020636F6D706C00
:1001600065746500626567696E206C6F6F70000072
:10017000000000240027002A0000000000250028BD
:10018000002B0000000000230026002900040404C6
:100190000404040404020202020202030303030330
:1001A000030102040810204080010204081020010D
:1001B00002040810200000000800020100000304EF
:1001C000070000000000000000009B161614112418
:1001D0001FBECFEFD8E0DEBFCDBF11E0A0E0B1E0A1
:1001E000EEE9F8E302C005900D92A239B107D9F704
:1001F00025E0A2E9B1E001C01D92A438B207E1F701
:1002000010E0C6EED0E004C02197FE010E949717CF
:10021000C53ED107C9F70E9417140C94421C0C94D8
:100220000000FC01918D228D892F90E0805C9F4F12
:10023000821B91098F739927089580E090E0892BA4
:1002400029F00E949D0D81110C9400000895DC019D
:100250005996ED91FC915A973097B9F0838994891A
:10026000A589B6894285538564857585841B950B60
:10027000A60BB70B811520E89207A105B10538F050
:100280008FEF9FE7A0E0B0E0089580E090E0089550
:10029000CF93DF931F92CDB7DEB76983DC01ED9179
:1002A000FC910280F381E02D41E050E0BE016F5FE0
:1002B0007F4F09950F90DF91CF9108958EBD00007B
:1002C0000DB407FEFDCF8EB508958FEF0C945E013F
:1002D000089581E090E03091EA012091E901321720
:1002E00010F480E090E091958195910908958091B6
:1002F000EA019091E901891730F48F5F8093EA0158
:1003000080E090E008958FEF9FEF08958091E901DC
:1003100090E02091EA01821B9109089585ED809378
:10032000BC008091BC0084FDFCCF1092290408958C
:100330004091BE01262F30E0240F311D21323105BE
:10034000DCF4209129042430C9F4FC0180E090E021
:10035000861758F43091BE012191DC01A456BE4F9E
:10036000A30FB11D2C930196F3CF8091BE01680FAE
:100370006093BE0180E0089581E0089582E00895D1
:10038000CF92DF92EF92FF920F931F93CF93DF9361
:100390007C01262F972F8A0180912A04882391F0CF
:1003A000C62FD72F6E01C40ED51ECC15DD0571F0FA
:1003B0006991D701ED91FC910190F081E02DC70189
:1003C0000995F3CF642F822F0E949801C801DF9115
:1003D000CF911F910F91FF90EF90DF90CF900895F4
:1003E000CF93DF931F92CDB7DEB7698320912A04A4
:1003F0002223D1F020914D04203240F021E030E062
:10040000FC013383228380E090E015C080912B04AF
:10041000E82FF0E0E45DFB4F998190838F5F80933C
:100420002B0480934D0405C061E0CE0101960E942B
:10043000980181E090E00F90DF91CF9108950895A9
:10044000FC011682089521E0FC0126830895089599
:1004500008950895F89489B18C708093190580915E
:1004600019058C3021F480911805811109C0809103
:100470001905883019F481E0809317057894089560
:10048000E0911A05F0911B05309719F081E090E09A
:1004900009951092180510921705F0CFF89489B1BC
:1004A0008C7080931905809119058C3021F480910E
:1004B0001705811109C080911905843019F481E074
:1004C0008093180578940895E0911A05F0911B0522
:1004D000309719F08FEF9FEF099510921805109241
:1004E0001705F0CF2091ED013091EE01820F931F9F
:1004F0009093EE018093ED010895A091EB01B091EE
:10050000EC011696ED91FC911797EE0FFF1F1296D6
:100510008D919C911397E80FF91F80819181DC01E7
:10052000ED91FC910680F781E02D0994A091EB01FB
:10053000B091EC011696ED91FC911797EE0FFF1F0D
:1005400012968D919C911397E80FF91F80819181EC
:10055000DC01ED91FC910480F581E02D0994CF93AD
:10056000DF9300D0CDB7DEB780E489836A83CE0104
:1005700001960E94101281E090E00F900F90DF91A1
:10058000CF91089561E0FC0184810E947A138091EB
:10059000E30181111092E3010895CF93DF93EC0101
:1005A0008E81882389F08F8198859C012F5F3F4F32
:1005B00038872F838230924018F40E946501F3CF70
:1005C000CE010E94C2021E82DF91CF9108950C9449
:1005D00051190F931F93CF93DF9300D000D000D019
:1005E000CDB7DEB78C0180E8898388EC8A83CE01A1
:1005F00001960E941012D8011696ED91FC91179762
:10060000EE0FFF1F12968D919C911397E80FF91F23
:1006100060817181DB01ED91FC910190F081E02D11
:10062000CE0101960995F80182859385DC01ED9153
:10063000FC914D815E8169817A810280F381E02D98
:10064000099589819A810E94511926960FB6F894CE
:10065000DEBF0FBECDBFDF91CF911F910F910895E7
:10066000FC0126813781C901880F991FA281B381BE
:10067000A80FB91F8D919C91DC0116964C9116978D
:10068000442331F0ED91FC910280F381E02D099437
:10069000620F731F8481958177FF03C0680F791FF4
:1006A000F9CF681779071CF0681B790BFACF7783AD
:1006B0006683CF010C94E9020C94E902CF93DF9397
:1006C0001F92CDB7DEB7FC01818D928D009751F05E
:1006D000BE016F5F7F4F0E942B12019719F4898131
:1006E00090E002C08FEF9FEF0F90DF91CF910895C0
:1006F0000F931F93CF93DF93EB010E940A148B019A
:100700000E9465018F3F49F00E940A14601B710B23
:100710006C177D07A8F380E001C081E0DF91CF91E5
:100720001F910F910895CF92DF92FF920F931F9325
:10073000CF93DF9300D000D0CDB7DEB76C01F62E9B
:1007400029833A834B835C830E94CD028091E3012D
:1007500029813A814B815C81811109C081E08093BC
:10076000E3019091EB048091EC049CBD8DBD60E0B1
:10077000F601848129833A834B835C830E947A1338
:100780006CE271E0C6010E9478038F2D80640E94A4
:100790005E0108E110E05C814B813A812981DA0138
:1007A000C901002E04C0B695A795979587950A9420
:1007B000D2F729833A834B835C830E945E01085001
:1007C000110929813A814B815C81083FFFEF1F07A6
:1007D00031F7FF2029F088E0F81204C087E803C051
:1007E00085E901C08FEF0E945E0110E00E94650163
:1007F000F601828787FF04C01F3F11F01F5FF6CF0D
:100800000F900F900F900F90DF91CF911F910F914C
:10081000FF90DF90CF900895EF92FF920F931F9378
:10082000CF93DF93EC017901411551056105710505
:1008300011F482E13CC08B85833039F089E0440FAC
:10084000551F661F771F8A95D1F79A01AB0168E1A2
:10085000CE010E949303882311F084E028C08EEF1C
:100860000E945E0187018EEFF81AF80181918F01D5
:100870000E945E010E151F05C1F78FEF0E945E01F9
:100880008FEF0E945E010E9465018A878F7185301B
:1008900031F081E18D83CE010E94C20209C068E57A
:1008A00072E0CE010E947803811107C085E18D833B
:1008B000CE010E94C20280E013C020E030E0A90116
:1008C0006DE0CE010E949303811104C00E94650176
:1008D000882311F084E1EBCFCE010E94C20281E0B7
:1008E000DF91CF911F910F91FF90EF900895CF93DB
:1008F000DF938091E401882399F1C0910102D091A6
:10090000020240910501509106016091070170912A
:10091000080123E032E0CE010E940C04811102C0E4
:1009200080E01FC04091E5015091E6016091E70130
:100930007091E801411551056105710579F023E0D9
:1009400032E0CE010E940C04882351F31092E5019D
:100950001092E6011092E7011092E8011092E40172
:1009600081E0DF91CF910895CF93DF93EC0119825D
:1009700018821B821A821D821C8262EA70E00E9429
:100980005A0ECE01DF91CF910895CF93DF93EC0102
:10099000198218821B821A821D821C8268E670E00E
:1009A0000E945A0ECE01DF91CF910895FC01848DF3
:1009B000DF01A80FB11DA35ABF4F2C91848D90E089
:1009C00001968F739927848FA689B7892C93A08964
:1009D000B1898C9180648C93938D848D981306C01B
:1009E0000288F389E02D80818F7D80830895CF93E5
:1009F000DF9300D0CDB7DEB790E899838A83CE012C
:100A000001960E9410120F900F90DF91CF910895E0
:100A1000CF93DF931F92CDB7DEB781E080932A0496
:100A200082E680934C0410922B0410924D048DEEBC
:100A300094E049830E94F0014981642F8DEE94E097
:100A40000E94F0010F90DF91CF910C94B3110F939E
:100A50001F93CF93DF93EC010A891B8940E064E088
:100A6000C8010E9408054FEF63E0C8010E94080515
:100A700040E062E0C8010E94080560E770E08A89F2
:100A80009B890E94820FCE01DF91CF911F910F9120
:100A90000C94E902DF92EF92FF920F931F93CF9392
:100AA000DF93EC018B810E942B13892BD9F76A818C
:100AB0008B810E94AA13082F6A818B810E94AA133E
:100AC000182F6A818B810E94AA13D82EE12CF12C59
:100AD0002C8130E0E216F30660F461E08A810E9426
:100AE0007A1360E08A810E947A132FEFE21AF20AE9
:100AF000EFCF812F90E0A0E0B0E0BA2FA92F982F80
:100B00008827A02BAC01BD014D29802F880F880BB1
:100B100090E0A0E0B0E0B82FAA27992788278A01A3
:100B20009B01082B192B2A2B3B2BC901B801DF9104
:100B3000CF911F910F91FF90EF90DF900895CF928A
:100B4000DF92EF92FF920F931F93CF93DF938C016D
:100B5000C62FD0E0C12CD12C7601DC1749F0C8019A
:100B60000E944A05C60ED71EE81EF91EDF5FF5CFAC
:100B70002D2F30E040E050E0C701B6010E94781709
:100B8000CA01B901DF91CF911F910F91FF90EF90B2
:100B9000DF90CF900895CF93DF93FC01C281D38182
:100BA0006AE0CE010E949F050E94D81A0E947C181C
:100BB0006D837E838F839887DF91CF9108958F9285
:100BC0009F92AF92BF92EF92FF920F931F93CF939A
:100BD000DF9300D000D000D0CDB7DEB77C0185E92F
:100BE00090E00E946711F7010089118961E0C80156
:100BF0000E949F05F80185809680A780B0846819BF
:100C000079098A099B090E94D81AF8012185328541
:100C1000438554850E940A18AB01BC0180E8898392
:100C200080EC8A83CE0101964B835C836D837E8347
:100C30000E94101222E04B815C816D817E81F70160
:100C4000828993890E9404108FE790E00E946711C7
:100C500026960FB6F894DEBF0FBECDBFDF91CF91C1
:100C60001F910F91FF90EF90BF90AF909F908F904A
:100C700008950895AF92BF92CF92DF92EF92FF92C4
:100C80000F931F93CF93DF93EC016901C801820F8B
:100C9000931F8130924008F070C08E81882371F0DC
:100CA00088819981AA81BB81481759076A077B0708
:100CB00029F48F819885C816D906B0F548835983E1
:100CC0006A837B838B85833039F089E0440F551F1D
:100CD000661F771F8A95D1F79A01AB0161E1CE01BA
:100CE0000E949303882319F083E08D8346C00E94FD
:100CF0000A145B010E9465018A878F3F49F40E94B4
:100D00000A146A197B096D327140A0F38FE003C0A9
:100D10008E3F31F08DE08D83CE010E94C2022DC046
:100D200018861F8281E08E838F8198858C159D05A2
:100D300040F40E9465018F819885019698878F8382
:100D4000F3CF6701E00EF11ECE14DF0431F00E94F4
:100D50006501F60181936F01F7CF8F819885080FA8
:100D6000191F18870F838985882319F001151240F0
:100D700048F0CE010E94CD0205C0CE010E94C20201
:100D800080E001C081E0DF91CF911F910F91FF9032
:100D9000EF90DF90CF90BF90AF9008958F929F9289
:100DA000AF92BF92EF92FF920F931F93CF934B019D
:100DB0005C01C42F8091050190910601A09107016B
:100DC000B091080188159905AA05BB0501F10E949B
:100DD0007704811102C080E020C083E0E82E82E029
:100DE000F82E00E012E020E030E0B501A40180918F
:100DF0000102909102020E943A06882361F38092D8
:100E0000050190920601A0920701B092080180911D
:100E1000E401C82BC093E40181E0CF911F910F91B1
:100E2000FF90EF90BF90AF909F908F9008954F925A
:100E30005F926F927F928F929F92AF92BF92CF926A
:100E4000DF92EF92FF920F931F93CF93DF93EC010A
:100E50006A017B01280139014230510561057105A4
:100E600010F480E073C089859A85AB85BC850196B6
:100E7000A11DB11D84179507A607B70790F38B88AE
:100E80009C88AD88BE888F89803129F4BB27AF2D1F
:100E90009E2D8D2D09C0DB01CA0147E0B695A795AF
:100EA000979587954A95D1F7880E991EAA1EBB1E65
:100EB0008091050190910601A0910701B091080170
:100EC00088169906AA06BB0679F48F898031A1F4A9
:100ED000DD24EE24FF24C601880F991FFC01ED5F7D
:100EE000FD4F5182408219C040E0C501B4010E940B
:100EF000CE068111EACFB5CFE894C7F8DD24EE2401
:100F0000FF24C601880F991F880F991FFC01ED5F10
:100F1000FD4F40825182628273828091E401816040
:100F20008093E4018A89823080F08D819E81AF8137
:100F3000B885880E991EAA1EBB1E8092E50190926C
:100F4000E601A092E701B092E80181E0DF91CF9144
:100F50001F910F91FF90EF90DF90CF90BF90AF90D7
:100F60009F908F907F906F905F904F9008958F9299
:100F70009F92AF92BF92CF92DF92EF92FF920F9328
:100F80001F93CF93DF93FC0181859285A385B48560
:100F90000196A11DB11D84179507A607B70710F488
:100FA00080E05CC083899489A589B689C789C031EE
:100FB00029F4852E962EA72EBB2409C04A015B0179
:100FC000C7E0B694A79497948794CA95D1F7E9019E
:100FD0006A017B018F01BC01CD01680D791D8A1D5D
:100FE0009B1D8090050190900601A0900701B09094
:100FF0000801681579058A059B0599F4F801878928
:101000008031A9F4B701A601552766277727440F39
:10101000551FFA01ED5FFD4F80819181A0E0B0E0A6
:1010200018C040E00E94CE068111E8CFB9CFB701C9
:10103000A6014F77552766277727440F551F440F82
:10104000551FFA01ED5FFD4F80819181A281B3812F
:10105000BF7088839983AA83BB8381E0DF91CF919E
:101060001F910F91FF90EF90DF90CF90BF90AF90C6
:101070009F908F9008958F929F92AF92BF92CF9240
:10108000DF92EF92FF920F931F93CF93DF93EC01C8
:101090008D81811102C080E077C00B891C892D8968
:1010A0003E890417150726073707A8F36A017B0155
:1010B000823029F4CA86DB86EC86FD860DC0C11419
:1010C000D104E104F10451F41E821F8218861986AE
:1010D0001A861B861C861D8681E056C08A849B84E6
:1010E000AC84BD84EB8DFC8D258530E0275F3F4FC0
:1010F000B501A4014150510961097109022E04C0D2
:1011000076956795579547950A94D2F7D701C6010A
:101110000197A109B10904C0B695A7959795879540
:101120002A95D2F784179507A607B70720F08928D4
:101130008A288B2849F44F89588D698D7A8D4E8382
:101140005F836887798704C0841B950BA60BB70B58
:101150004C015D018E010A5F1F4F81149104A104AF
:10116000B10409F4A7CF4E815F8168857985980124
:101170008B8D9C8D0E94B70791E0891A9108A10878
:10118000B1088111EACF87CFDF91CF911F910F91E5
:10119000FF90EF90DF90CF90BF90AF909F908F9097
:1011A0000895EF92FF920F931F93CF93DF931F92B7
:1011B000CDB7DEB7FC01818D928D009701F17F01E3
:1011C000BE016F5F7F4F0E942B12019719F40981B6
:1011D00010E002C00FEF1FEF0F3F8FEF180789F0ED
:1011E000F701818D928DFC0142855385648575855B
:1011F00041505109610971090E943B0802C000E099
:1012000010E0C8010F90DF91CF911F910F91FF90D7
:10121000EF9008953F924F925F926F927F928F92DC
:101220009F92AF92BF92CF92DF92EF92FF920F9375
:101230001F93CF93DF93CDB7DEB72C970FB6F894FB
:10124000DEBF0FBECDBF5C01DC015B968D909C9034
:101250005C971696CD90DD90ED90FC901997C11497
:10126000D104E104F10439F0BFEFCB1ADB0AEB0A39
:10127000FB0A312C07C0F401C080D180E280F380EA
:1012800033243394F40181859285A385B4859C0130
:10129000AD012F5F3F4F4F4F5F4F29873A874B87F5
:1012A0005C87260137011D821E821F821886F40189
:1012B00081859285A385B4852D813E814F81588596
:1012C000281739074A075B0708F063C089859A85A4
:1012D000AB85BC858C159D05AE05BF0550F482E03D
:1012E000C82ED12CE12CF12C92E0492E512C612CEE
:1012F000712C9E012F5F3F4FB701A601C4010E94D0
:10130000B707882309F445C089819A81AB81BC81E4
:10131000892B8A2B8B2B41F0260137019FEF491A2D
:10132000590A690A790A05C0C414D504E604F70409
:1013300091F02D813E814F8158852F5F3F4F4F4F58
:101340005F4F2D833E834F8358873FEFC31AD30AE5
:10135000E30AF30AACCF0FEF1FEF2FEF3FE0B3012B
:10136000A201C4010E941707882399F0D50116969F
:101370004D915D916D917C911997411551056105D4
:10138000710549F093018201C4010E941707811180
:1013900002C080E02AC0D50116964D925D926D92F2
:1013A0007C921997332051F0D301C2010196A11DFF
:1013B000B11DF40180839183A283B383F5018789F2
:1013C000908DA18DB28D892B8A2B8B2B69F4D50141
:1013D00057964D925D926D927C925A9714968C918D
:1013E0001497806814968C9381E02C960FB6F8942D
:1013F000DEBF0FBECDBFDF91CF911F910F91FF9048
:10140000EF90DF90CF90BF90AF909F908F907F90A4
:101410006F905F904F903F900895CF93DF93FC01C2
:10142000248127FF2EC0EC0166857785808991890C
:1014300041E00E94CE06882341F1EA8980E2E89FDC
:10144000F0011124DF01AD5FBD4F1097F1F08D81E8
:10145000823050F44B895C896D897E895C964D930E
:101460005D936D937C935F978F89988DA98DBA8DCD
:10147000ED5FFD4F938F828FB58BA48B8C818F771F
:101480008C83DF91CF910C94770480E0DF91CF9132
:101490000895FC01818D928D009729F0FC01258132
:1014A00021110C940D0A08952F923F924F925F9252
:1014B0006F927F928F929F92AF92BF92CF92DF9264
:1014C000EF92FF920F931F93CF93DF9300D000D042
:1014D00000D0CDB7DEB78C015B011A01DC01159697
:1014E0008C9115978130C9F414968C9181FF15C0A9
:1014F00082FF1DC0F80143895489658976898285F8
:101500009385A485B58584179507A607B70779F055
:10151000C8010E943B0881110AC081E090E0D80117
:1015200013969C938E93129780E090E042C16101E4
:1015300020910102309102023E832D8382C0D801A6
:101540005B968D919C915C97FC0174802FEF270D29
:101550002A013B0139E076946794579447943A9571
:10156000D1F7722E74207A01F1E0FF22772009F47E
:1015700074C080E092E08E199F0946018C159D058C
:1015800008F44C01D8015B962D913C915C9716961E
:101590008D919D910D90BC91A02D0297A109B1094B
:1015A000F901058404C0880F991FAA1FBB1F0A9464
:1015B000D2F74685578560897189840F951FA61FCC
:1015C000B71F9C01AD01270D311D411D511D290182
:1015D0003A01811432E0930609F086C0809105013A
:1015E00090910601A0910701B0910801841595051D
:1015F000A605B70559F48FEF9FEFDC018093050135
:1016000090930601A0930701B09308019501B301DF
:10161000A2018D819E810E940C04882309F47DCF54
:101620009EEFB91AC818D908F80182859385A48558
:10163000B585880D991DA11DB11D82879387A4874B
:10164000B587D8011A964D915D916D917C911D974A
:10165000C114D10409F073CF87C0E114F10409F07B
:1016600088CF16964D915D916D917C91199741159A
:1016700051056105710559F457968D919D910D9015
:10168000BC91A02D0097A105B10541F521C09E0197
:101690002F5F3F4F0E94B707882309F446CF898107
:1016A0009A81AB81BC81F801238D348DF9012789A2
:1016B000203129F048EF5FEF6FEF7FE004C048EF83
:1016C0005FEF60E070E084179507A607B70730F07A
:1016D000C8010E940A0981114CCF1FCFF8018683EF
:1016E0009783A087B18745CFE114F10429F5D8018C
:1016F0001A964D915D916D917C911D9753968D91A8
:101700009D910D90BC91A02D481759076A077B0742
:1017100098F00E947704882309F4FFCE40920501D7
:101720005092060160920701709208018091E401D5
:1017300081608093E40108C041E0C301B2010E94CE
:10174000CE06882309F4E9CED501F701ED5FFD4F00
:10175000CF01880D991DE817F90719F02D912193F4
:10176000FACFA80CB91C5ECF53968D919D910D9028
:10177000BC91A02D84179507A607B70740F4F80180
:10178000438B548B658B768B848180688483D801EE
:1017900014968C9183FD02C0C1010BC0F8018581B4
:1017A000882309F4BACEC8010E940D0A8111F4CF32
:1017B000B4CE26960FB6F894DEBF0FBECDBFDF9134
:1017C000CF911F910F91FF90EF90DF90CF90BF903E
:1017D000AF909F908F907F906F905F904F903F90D1
:1017E0002F900895CF93DF93EC01898D9A8D009708
:1017F00039F481E090E09B838A8380E090E00BC025
:10180000FC01138212820E94540AE98DFA8D228112
:101810003381232B71F7DF91CF910895CF93DF931D
:101820001F92CDB7DEB7698341E050E0BE016F5F24
:101830007F4F0E94540A0F90DF91CF9108951F921D
:101840000F920FB60F9211242F933F934F935F93F4
:101850006F937F938F939F93AF93BF93EF93FF9378
:101860008091B900887F803609F49CC068F5883281
:1018700009F45BC090F4803109F454C038F4882333
:1018800009F4F6C0883009F44DC0F6C0883109F477
:101890004CC0803209F45DC0EFC0803409F468C0E8
:1018A00048F4803309F455C0883309F0E5C08093CB
:1018B0002704D8C0803509F44FC0883509F45DC0CD
:1018C000883409F0D9C0D6C0883909F4C7C0A8F453
:1018D000883709F467C038F4883609F463C0803764
:1018E00009F460C0C9C0883809F4B8C0803909F467
:1018F0005FC0803809F0C0C05BC0803B09F486C07F
:1019000038F4803A09F466C0883A09F47FC0B4C05C
:10191000803C09F4A7C0883C09F4A4C0883B09F4C2
:101920008AC0AAC08091040410C0909126048091BE
:101930002504981770F5E091260481E08E0F8093BE
:101940002604F0E0EB5FFB4F80818093BB0085ECC9
:1019500086C0809327048EC0E091260481E08E0F1C
:10196000809326048091BB00F0E0EB5FFB4F808307
:1019700090912604809125046EC0E091260481E0B8
:101980008E0F809326048091BB00F0E0EB5FFB4F4D
:1019900080838091280481116DC081E080930304CD
:1019A00084EA61C083E0809329041092E201CFCFE2
:1019B0008091E201803208F051C0E091E20181E0C3
:1019C0008E0F8093E2018091BB00F0E0EE53FE4F5A
:1019D0008083BDCF85EC8093BC0010922904809158
:1019E000E201803230F4E091E201F0E0EE53FE4F8C
:1019F00010826091E20170E0E091C001F091C101BC
:101A000082EC91E009951092E20136C084E0809367
:101A100029041092BF011092BE01E091BC01F09127
:101A2000BD0109958091BE01811105C081E08093BF
:101A3000BE0110929C01E091BF0181E08E0F809366
:101A4000BF01F0E0E456FE4F80818093BB0090918F
:101A5000BF018091BE01981708F479CF85E8809383
:101A6000BC000AC085EC8093BC001092290404C01D
:101A7000109227040E948E01FF91EF91BF91AF91C8
:101A80009F918F917F916F915F914F913F912F9196
:101A90000F900FBE0F901F9018950895CF92DF9270
:101AA000EF92FF920F931F93CF93DF936C017A0114
:101AB0008B01C0E0D0E0CE15DF0589F0D8016D9133
:101AC0008D01D601ED91FC910190F081E02DC601D0
:101AD0000995892B11F47E0102C02196ECCFC70134
:101AE000DF91CF911F910F91FF90EF90DF90CF90FA
:101AF0000895FC01918D828D981761F0828DDF0130
:101B0000A80FB11D5D968C91928D9F5F9F73928FF0
:101B100090E008958FEF9FEF0895FC01918D828DE5
:101B2000981731F0828DE80FF11D858D90E00895B2
:101B30008FEF9FEF08950E94B31A8EE494E00E9405
:101B4000110121E0892B09F420E0822F0895EF9202
:101B5000FF920F931F93CF93DF93EC0181E0888F67
:101B60009B8D8C8D981305C0E889F989808185FD4E
:101B700024C0F62E0B8D10E00F5F1F4F0F7311273F
:101B8000E02E8C8DE8120CC00FB607FCFACFE88966
:101B9000F989808185FFF5CFCE010E94D604F1CF6F
:101BA0008B8DFE01E80FF11DE35AFF4FF0820B8F82
:101BB000EA89FB898081806207C0EE89FF896083A2
:101BC000E889F98980818064808381E090E0DF91F9
:101BD000CF911F910F91FF90EF900895CF93DF93D6
:101BE000EC01888D8823C9F0EA89FB89808185FD15
:101BF00005C0A889B9898C9186FD0FC00FB607FC76
:101C0000F5CF808185FFF2CFA889B9898C9185FFB6
:101C1000EDCFCE010E94D604E7CFDF91CF9108959A
:101C20001F920F920FB60F9211242F933F938F9311
:101C30009F93AF93BF938091FD019091FE01A0917E
:101C4000FF01B09100023091FC0123E0230F2D37FA
:101C500020F40196A11DB11D05C026E8230F0296B0
:101C6000A11DB11D2093FC018093FD019093FE0105
:101C7000A093FF01B09300028091F8019091F901C7
:101C8000A091FA01B091FB010196A11DB11D8093B5
:101C9000F8019093F901A093FA01B093FB01BF9171
:101CA000AF919F918F913F912F910F900FBE0F9009
:101CB0001F901895CF92DF92EF92FF920F931F9390
:101CC000CF93DF93EC016B01E880F980611571051A
:101CD00061F1CB010E94C81A8C01E114F10429F0D2
:101CE0008A819B818017910728F5B8016F5F7F4F2C
:101CF000C7010E94E919009759F0998388831B83D3
:101D00000A832C813D81232BA9F4FC01108212C08F
:101D100088819981009711F00E94511919821882C7
:101D20001D821C821B821A820CC0E114F104B1F3E3
:101D3000C701F2CF1D830C83B601888199810E946F
:101D4000C11ACE01DF91CF911F910F91FF90EF90BB
:101D5000DF90CF9008951F920F920FB60F9211242B
:101D60002F933F934F935F936F937F938F939F93A3
:101D7000AF93BF93EF93FF93E0910301F0910401C0
:101D80000995FF91EF91BF91AF919F918F917F91B5
:101D90006F915F914F913F912F910F900FBE0F90D8
:101DA0001F9018951F920F920FB60F9211242F9328
:101DB0003F934F935F936F937F938F939F93AF93D3
:101DC000BF93EF93FF93E0910101F0910201099518
:101DD000FF91EF91BF91AF919F918F917F916F9103
:101DE0005F914F913F912F910F900FBE0F901F90D9
:101DF00018951F920F920FB60F9211242F933F93B5
:101E00004F935F936F937F938F939F93AF93BF9302
:101E1000EF93FF938091F2019091F301A091F4016F
:101E2000B091F501892B8A2B8B2B59F18091F1010F
:101E3000E091EF01F091F0019081892780838091FA
:101E4000F2019091F301A091F401B091F5011816FF
:101E500019061A061B060CF03DC08091F201909104
:101E6000F301A091F401B091F5010197A109B10925
:101E70008093F2019093F301A093F401B093F501E4
:101E800029C080910001EAEAF0E0E4919FEF90938D
:101E90000001E130B9F098F0E230C9F4909170009F
:101EA0009D7F9093700091E09093B0009091B1006D
:101EB000987F94609093B1001092B30008C0109284
:101EC0006E0005C090916F009D7F90936F0060E061
:101ED0000E947A13FF91EF91BF91AF919F918F91E3
:101EE0007F916F915F914F913F912F910F900FBE16
:101EF0000F901F901895DC01ED91FC910190F081FD
:101F0000E02D0994EF92FF920F931F93CF93DF93ED
:101F10008C017B01C0E0D0E0F701EC0FFD1F649164
:101F2000662361F0D801ED91FC910190F081E02DE4
:101F3000C8010995892B11F02196EECFCE01DF91D2
:101F4000CF911F910F91FF90EF900895611571054A
:101F500079F0FB0101900020E9F73197AF01461BB2
:101F6000570BDC01ED91FC910280F381E02D099487
:101F700080E090E008954F925F926F927F92EF928F
:101F8000FF920F931F93CF93DF93CDB7DEB7A19747
:101F90000FB6F894DEBF0FBECDBF7C01FA01CB01B6
:101FA00019A2223008F42AE08E010F5D1F4F422E45
:101FB000512C612C712CBF01A30192010E94561774
:101FC000F901CA01015011096A3014F4605D01C0C1
:101FD000695CD8016C93232B242B252B61F7B80166
:101FE000C7010E94A60FA1960FB6F894DEBF0FBEE0
:101FF000CDBFDF91CF911F910F91FF90EF907F9018
:102000006F905F904F9008954F925F926F927F9282
:102010008F929F92AF92BF92CF92DF92EF92FF92F8
:10202000CF93DF93EC016A017B01B22E9A01AB01E1
:10203000C701B6010E94B718882319F063E871E060
:1020400027C026013701E89477F82FEF3FEF4FE7DD
:102050005FE7C301B2010E94B71881110DC02FEFD5
:102060003FEF4FE75FE7C301B2010E94D11A181694
:102070001CF467E871E00CC02FEF3FEF4FE75FE41F
:10208000C701B6010E94B21818169CF46BE871E003
:10209000CE01DF91CF91FF90EF90DF90CF90BF9076
:1020A000AF909F908F907F906F905F904F900C9427
:1020B000A60F2FEF3FEF4FE75FECC701B6010E947D
:1020C000D11A87FDE3CF20E030E0A901C701B601B6
:1020D0000E94D11A87FF0AC06DE2CE010E947B0FD9
:1020E0004C01F7FAF094F7F8F09402C0812C912C8F
:1020F000A12C60E070E080E09FE3AB1441F020E0B1
:1021000030E040E251E40E940A18A394F6CF9B010C
:10211000AC01C701B6010E949E172B013C010E9431
:1021200083186B017C010E94D61A9B01AC01C3018C
:10213000B2010E949D172B013C012AE0B701A601C4
:10214000CE010E94BB0F7C01E80CF91CBB2031F0D2
:102150006EE2CE010E947B0FE80EF91EDB2CDD2023
:1021600029F120E030E040E251E4C301B2010E94D5
:10217000371B2B013C010E9483184B01A12CB12C71
:102180002AE0B501A401CE010E94BB0FE80EF91EA2
:10219000C501B4010E94D61A9B01AC01C301B20172
:1021A0000E949D172B013C01DA94D9CFC701DF9122
:1021B000CF91FF90EF90DF90CF90BF90AF909F9026
:1021C0008F907F906F905F904F9008951F920F9225
:1021D0000FB60F9211242F933F934F935F936F93FA
:1021E0007F938F939F93AF93BF93EF93FF938EE46F
:1021F00094E00E94D604FF91EF91BF91AF919F911F
:102200008F917F916F915F914F913F912F910F909F
:102210000FBE0F901F9018951F920F920FB60F923E
:1022200011242F938F939F93EF93FF93E0915E047C
:10223000F0915F048081E0916404F091650482FD77
:1022400012C09081809167048F5F8F732091680422
:10225000821751F0E0916704F0E0E25BFB4F958F4D
:102260008093670401C08081FF91EF919F918F91CE
:102270002F910F900FBE0F901F901895833081F013
:1022800028F4813099F08230A1F008958730A9F0C8
:102290008830B9F08430D1F4809180008F7D03C004
:1022A000809180008F7780938000089584B58F7728
:1022B00002C084B58F7D84BD08958091B0008F7772
:1022C00003C08091B0008F7D8093B0000895CF93BC
:1022D000DF93BC018EE494E00E94820FEC016FE872
:1022E00071E08EE494E00E94A60F8C0F9D1FDF9199
:1022F000CF910895CF92DF92EF92FF92CF93DF9329
:102300006C01990FEE08FF08F7FE16C06DE28EE42F
:1023100094E00E947B0FEC0144275527BA014C1929
:102320005D096E097F092AE08EE494E00E94BB0FEC
:102330007C01EC0EFD1E08C02AE0B701A6018EE468
:1023400094E00E94BB0F7C016FE871E08EE494E0A2
:102350000E94A60F8E0D9F1DDF91CF91FF90EF90F1
:10236000DF90CF90089520914D0490914C0421323C
:1023700008F04AC0809129048111FCCF32E03093EB
:10238000290431E0309328043FEF30932704109262
:10239000260420932504ACE2B4E045E054E0FA01C1
:1023A0003E2F341B321718F43D913193F9CF109220
:1023B000040420910404990F922B909304049091AB
:1023C0000304913061F410920304909104049093FB
:1023D000BB009091BC0093FDF8CF95EC01C095EE49
:1023E0009093BC00909129049230E1F390912704DE
:1023F0009F3F79F080912704803241F0809127043B
:10240000803331F084E005C081E003C082E001C088
:1024100083E010922B0410924D0410922A04089528
:10242000CF93DF93EC0181E080932A048EE38093C5
:102430004C0410922B0410924D0468818DEE94E0B0
:102440000E94F00169818DEE94E00E94F001DF911D
:10245000CF910C94B3114F925F926F927F928F92B3
:102460009F92AF92BF92CF92DF92EF92FF920F9323
:102470001F93CF93DF933C016B01DC0115968C9188
:10248000811103C08FEF9FEFD5C0F301848180FFDE
:10249000F9CF81E083889488A588B68842855385E2
:1024A0006485758584169506A606B70609F480E04E
:1024B00090E02C014301B6E08B0E911CA09001022C
:1024C000B0900202892B09F480C0D3011A964D9175
:1024D0005D916D917C911D97EA01D17015962C91BB
:1024E00015977A018B0189E016950795F794E79483
:1024F0008A95D1F75B968D919C915C97223061F41F
:10250000FC01828D938DA48DB58DBC01CD016E0D26
:102510007F1D801F911F46C0DC0114962C91215015
:10252000122F1E212097E9F411111BC0452B462BB9
:10253000472B51F4F3018789908DA18DB28D86834D
:102540009783A087B1870DC0D30116964D915D91F9
:102550006D917C91199794010E94B707882309F423
:1025600091CFF301238D348D86819781A085B1852C
:102570000297A109B109F901058404C0880F991FC8
:10258000AA1FBB1F0A94D2F74685578560897189B7
:10259000840F951FA61FB71FBC01CD01610F711DD0
:1025A000811D911DD30114962C9126FF10C000911E
:1025B0000501109106012091070130910801601773
:1025C00071078207930731F502C0C20133C040E0B2
:1025D0000E94CE06882309F455CFCD5FDD4FF6016A
:1025E000CE010196C817D90719F029912193FACF86
:1025F000EFEFCE1ADE0AF30182859385A485B585B7
:102600000196A11DB11D82879387A487B58780E0BD
:1026100090E058CF760101E010E09E01AB01BC01D3
:10262000C5010E943A06882309F42CCFBFEFCB1ACC
:10263000DB0AE1CFDF91CF911F910F91FF90EF90D7
:10264000DF90CF90BF90AF909F908F907F906F90D2
:102650005F904F900895CF93DF93282F30E0F901DA
:10266000EB54FE4F8491F901EF55FE4FD491F901DF
:10267000E357FE4FC491CC2391F081110E943E118B
:10268000EC2FF0E0EE0FFF1FED57FE4FA591B49138
:10269000EC91ED2381E090E021F480E002C080E045
:1026A00090E0DF91CF910895CF93809114050E941F
:1026B0002B13C1E020911605892B69F4C0E0222379
:1026C000B1F0E0911C05F0911D05309709F00995D6
:1026D000109216050CC021110AC0E0911E05F09160
:1026E0001F05309709F0099581E0809316058C2F1E
:1026F000CF9108951F93CF93DF93282F30E0F901F6
:10270000EB54FE4F8491F901EF55FE4FD491F9013E
:10271000E357FE4FC491CC23C9F0162F81110E94BC
:102720003E11EC2FF0E0EE0FFF1FE758FE4FA59192
:10273000B4918FB7F894111105C09C91ED2FE095DD
:10274000E92302C0EC91ED2BEC938FBFDF91CF9189
:102750001F910895FF920F931F93CF93DF93F82E4D
:10276000062FC7E0D0E010E061E0802F0E947A13CE
:102770008F2D0E942B130C2E01C0880F0A94EAF7AC
:10278000182B60E0802F0E947A13219768F7812F21
:10279000DF91CF911F910F91FF900895CF93DF9319
:1027A00090E0FC01EF55FE4F2491FC01E357FE4FF2
:1027B0008491882361F190E0880F991FFC01E15911
:1027C000FE4FC591D491FC01E758FE4FA591B491FD
:1027D000611109C09FB7F89488812095822388836E
:1027E000EC912E230BC0623061F49FB7F8943881CE
:1027F000822F809583238883EC912E2B2C939FBF6F
:1028000006C08FB7F894E8812E2B28838FBFDF9105
:10281000CF9108952FB7F8946091FD017091FE015A
:102820008091FF01909100022FBF08950895CF93EA
:10283000DF931F92CDB7DEB7789484B5826084BDF4
:1028400084B5816084BD85B5826085BD85B58160B4
:1028500085BD80916E00816080936E001092810032
:1028600080918100826080938100809181008160ED
:1028700080938100809180008160809380008091AE
:10288000B10084608093B1008091B000816080933A
:10289000B00080917A00846080937A0080917A0001
:1028A000826080937A0080917A00816080937A00C0
:1028B00080917A00806880937A001092C100E09144
:1028C0005E04F0915F0482E0D82ED082E0915A0439
:1028D000F0915B041082E0915C04F0915D048FEC58
:1028E000808310926604E0916204F091630486E0B4
:1028F0008083E0916004F091610480818061808335
:10290000E0916004F0916104808188608083E091AF
:102910006004F0916104808180688083E0916004AC
:10292000F091610480818F7D80838EE491E00E942C
:10293000671190E2E92E95E0F92EC7010E947A1105
:1029400080E090E0A0E8BFE38093290590932A05FA
:10295000A0932B05B0932C056AE0C7010E949F0548
:102960000E94D81A0E947C18609325057093260552
:1029700080932705909328056AE0C7010E949F0570
:102980001092EA011092E90110922B0410924D046A
:102990001092290481E0809328041092030461E0DE
:1029A00082E10E947A1361E083E10E947A138091B0
:1029B000B9008E7F8093B9008091B9008D7F80939C
:1029C000B90088E48093B80085E48093BC000DE2F0
:1029D00015E080913105982F986090933105D09241
:1029E000350510923605EBE3FDE03197F1F788628B
:1029F0000E94F7048BE496E40197F1F7809131058A
:102A000080620E94F70483E592E00197F1F78091DC
:102A1000310580620E94F7048091310580620E9436
:102A2000F70484E0809332058CE00E94F70481E093
:102A30000E94F7048BE39FE10197F1F7D0923305F1
:102A400086E00E94F70440E060E0C8010E940805AB
:102A50004FEF68E0C8010E94080540E261E0C8014C
:102A60000E9408054FEF64E0C8010E9408054FEF7F
:102A700063E0C8010E9408054FEF62E0C8010E94B0
:102A8000080584E190E00E94BC185C0183E191E0BC
:102A9000D50111969C938E931996FC92EE921897FD
:102AA000C7010E947A11F5011387028717821682E7
:102AB00085E391E091838083F18AE08A138B028B16
:102AC0008BEF90E00E946711D50150968D919C91FB
:102AD00051970E947A117501BCE0EB0EF11C670161
:102AE00000E010E0C8010E94F51BF60181936F0120
:102AF0000F5F1F4F04301105A9F7D5011C966D918A
:102B00007D918D919C911F979B01AC010E94B718FC
:102B1000882349F180E090E5ACEDB5ECF5018487C0
:102B20009587A687B78700E010E0D7016D917D01FA
:102B3000C80169830E94F51B6981681719F0C801F3
:102B40000E94FD1B0F5F1F4F0430110571F761EEEE
:102B500070E08EE494E00E94820FF5014485558573
:102B6000668577850DC066EC70E08EE494E00E9487
:102B7000820FD5011C964D915D916D917C911F97AF
:102B800022E08EE494E00E9404106FE871E08EE48D
:102B900094E00E94A60FF501E088F1888485958570
:102BA000A685B785F70181879287A387B48782E0DE
:102BB00090E0D50115969C938E93149784E090E055
:102BC0000E94BC188C01F5019383828387E090E01A
:102BD0000E94BC18FC01D5015296CD90DC90539711
:102BE000F382E282D582C48216828DE191E09183E4
:102BF0008083D801ED93FC9387E090E00E94BC189D
:102C0000FC01F382E282D582C482168289E291E0DD
:102C100091838083D8011396FC93EE9312978BEAED
:102C200090E00E946711B092EC01A092EB0161E08C
:102C300085E00E94CE1361E08EE00E94CE138FE308
:102C400091E00E9467118EE492E0909302018093DC
:102C5000010180916900836080936900E89A8AE2AB
:102C600092E09093040180930301809169008C604D
:102C700080936900E99A86E992E090931D0580931C
:102C80001C058DE792E090931F0580931E0582E757
:102C900092E090931B0580931A058EE291E00E94CA
:102CA00067110E9454138CE191E00E946711109209
:102CB000F7011092F6018091EB019091EC01DC019B
:102CC000ED91FC910190F081E02D09958DE091E06E
:102CD0000E94671184E691E00E9467110E945413DC
:102CE0008091ED019091EE01892B99F08091EB019B
:102CF0009091EC016091ED017091EE01DC01ED919C
:102D0000FC910480F581E02D09951092EE0110925E
:102D1000ED018091EB019091EC01DC01ED91FC91D2
:102D20000280F381E02D099586E591E00E9467110C
:102D30000E941D01CFCFCF92DF92EF92FF92CF93EF
:102D4000DF93EEE4F4E01382128288EEC82E83E073
:102D5000D82EE12CF12CC482D582E682F7828FE353
:102D600091E09183808385EC90E09587848784EC63
:102D700090E09787868780EC90E0918B808B81EC48
:102D800090E0938B828B82EC90E0958B848B86EC29
:102D900090E0978B868B118E128E138E148EE7E344
:102DA000F5E0158216821186138682E090E0A0E09D
:102DB000B0E084879587A687B78713A215A614A6C7
:102DC0008FE491E093A782A717A6EBEEF4E080E5ED
:102DD00080831182EDEEF4E013821282C482D582E8
:102DE000E682F78287E591E091838083EDE2F5E06A
:102DF000138212828FE791E091838083C0E2D5E055
:102E000087E791E0998388831D821E821F8218863E
:102E100080E090E0A0E8BFE389879A87AB87BC8712
:102E200086E08A8387E08B8361E086E00E94CE1390
:102E300060E08B810E94CE1381E08C8360E08A8108
:102E40000E947A13CE010E944A05E4E1F5E0128265
:102E500084E090E091838083178216821186108629
:102E60001386128613821482158262E00E94CE13AA
:102E700062E082E00E94CE1362E083E00E94CE1303
:102E8000E9EFF4E013821282C482D582E682F782EF
:102E900087E691E091838083128E118E1486DF91F4
:102EA000CF91FF90EF90DF90CF900895A1E21A2E7E
:102EB000AA1BBB1BFD010DC0AA1FBB1FEE1FFF1FDE
:102EC000A217B307E407F50720F0A21BB30BE40B2E
:102ED000F50B661F771F881F991F1A9469F7609575
:102EE0007095809590959B01AC01BD01CF0108952F
:102EF000052E97FB1EF400940E948F1757FD07D0F4
:102F00000E94561707FC03D04EF40C948F1750956F
:102F10004095309521953F4F4F4F5F4F08959095C5
:102F20008095709561957F4F8F4F9F4F0895EE0F5D
:102F3000FF1F0590F491E02D09945058BB27AA2754
:102F40000E94B5170C94BB1B0E94AD1B38F00E9469
:102F5000B41B20F039F49F3F19F426F40C94AA1BFB
:102F60000EF4E095E7FB0C94A41BE92F0E94CC1B08
:102F700058F3BA17620773078407950720F079F4AE
:102F8000A6F50C94EE1B0EF4E0950B2EBA2FA02D97
:102F90000B01B90190010C01CA01A0011124FF2706
:102FA000591B99F0593F50F4503E68F11A16F04001
:102FB000A22F232F342F4427585FF3CF4695379500
:102FC0002795A795F0405395C9F77EF41F16BA0BC5
:102FD000620B730B840BBAF09150A1F0FF0FBB1F73
:102FE000661F771F881FC2F70EC0BA0F621F731FBC
:102FF000841F48F4879577956795B795F7959E3F19
:1030000008F0B0CF9395880F08F09927EE0F9795A9
:10301000879508950E941E180C94BB1B0E94B41B38
:1030200058F00E94AD1B40F029F45F3F29F00C944A
:10303000A41B51110C94EF1B0C94AA1B0E94CC1BD7
:1030400068F39923B1F3552391F3951B550BBB27D7
:10305000AA2762177307840738F09F5F5F4F220F1C
:10306000331F441FAA1FA9F335D00E2E3AF0E0E813
:1030700032D091505040E695001CCAF72BD0FE2F5D
:1030800029D0660F771F881FBB1F261737074807F1
:10309000AB07B0E809F0BB0B802DBF01FF279358A9
:1030A0005F4F3AF09E3F510578F00C94A41B0C94AE
:1030B000EF1B5F3FE4F3983ED4F3869577956795D1
:1030C000B795F7959F5FC9F7880F911D96958795DE
:1030D00097F90895E1E0660F771F881FBB1F6217FD
:1030E00073078407BA0720F0621B730B840BBA0BBB
:1030F000EE1F88F7E09508950E9483186894B11137
:103100000C94EF1B08950E94D41B88F09F5798F0F1
:10311000B92F9927B751B0F0E1F0660F771F881FDC
:10312000991F1AF0BA95C9F714C0B13091F00E94F6
:10313000EE1BB1E008950C94EE1B672F782F8827C3
:10314000B85F39F0B93FCCF3869577956795B3951D
:10315000D9F73EF490958095709561957F4F8F4F8C
:103160009F4F08950E94131B08F48FEF08950E944B
:10317000131B880B990B0895CF93DF938230910531
:1031800010F482E090E0E0918205F091830520E068
:1031900030E0C0E0D0E0309711F140815181481714
:1031A0005907C0F04817590761F48281938120972D
:1031B00019F09B838A832BC09093830580938205AB
:1031C00026C02115310519F04217530718F49A014A
:1031D000BE01DF01EF010280F381E02DDCCF21157C
:1031E000310509F1281B390B2430310590F4129672
:1031F0008D919C9113976115710521F0FB019383CB
:10320000828304C09093830580938205FD013296EA
:1032100044C0FD01E20FF31F8193919322503109C5
:103220002D933C933AC02091800530918105232B4A
:1032300041F420910B0130910C01309381052093D2
:1032400080052091090130910A012115310541F4D1
:103250002DB73EB740910D0150910E01241B350B47
:10326000E0918005F0918105E217F307A0F42E1B91
:103270003F0B2817390778F0AC014E5F5F4F2417DA
:10328000350748F04E0F5F1F50938105409380052E
:103290008193919302C0E0E0F0E0CF01DF91CF9104
:1032A00008950F931F93CF93DF93009709F48CC079
:1032B000FC013297138212820091820510918305DE
:1032C0000115110581F420813181820F931F209116
:1032D0008005309181052817390779F5F09381052C
:1032E000E093800571C0D80140E050E0AE17BF0701
:1032F00050F412962D913C911397AD012115310593
:1033000009F1D901F3CF9D01DA0133832283608172
:103310007181860F971F8217930769F4EC0128814A
:103320003981260F371F2E5F3F4F318320838A81DB
:103330009B8193838283452B29F4F0938305E0934B
:10334000820542C01396FC93EE931297ED014991CA
:1033500059919E01240F351FE217F30771F4808104
:103360009181840F951F029611969C938E93828172
:10337000938113969C938E931297E0E0F0E0D8012E
:1033800012968D919C911397009719F0F8018C017A
:10339000F6CF8D919C9198012E5F3F4F820F931F26
:1033A00020918005309181052817390769F43097FD
:1033B00029F4109283051092820502C013821282B2
:1033C0001093810500938005DF91CF911F910F919C
:1033D0000895A0E0B0E0EFEEF9E10C940F1CEC01D1
:1033E000009721F4CB010E94BC18B8C0FC01E60F85
:1033F000F71F9C0122503109E217F30708F4ACC013
:10340000D9010D911C91119706171707B0F00530DF
:10341000110508F49FC0C80104978617970708F4A0
:1034200099C002501109061B170B019311936D935C
:103430007C93CF010E9451198DC05B01A01AB10A83
:103440004C01800E911EA0918205B091830540E051
:1034500050E0E12CF12C109709F44AC0A815B905E9
:10346000D1F56D907C901197630182E0C80ED11C5C
:10347000CA14DB0480F1A3014A195B096A0182E0E6
:10348000C80ED11C1296BC9012971396AC91B5E061
:10349000CB16D10440F0B282A38351834083D9017B
:1034A0006D937C930AC00E5F1F4FC301800F911F65
:1034B000F90191838083EB2DFA2FE114F10431F0AF
:1034C000D7011396FC93EE93129744C0F0938305B3
:1034D000E09382053FC08D919C9111974817590741
:1034E00008F4AC017D0112960D90BC91A02DB3CFD4
:1034F000809180059091810588159905E1F4461722
:103500005707C8F48091090190910A01009741F48E
:103510008DB79EB740910D0150910E01841B950B04
:10352000E817F907C8F4F0938105E0938005F901E5
:10353000718360830FC0CB010E94BC187C0100978F
:1035400059F0A801BE010E94B81ACE010E9451197B
:10355000C70104C0CE0102C080E090E0CDB7DEB765
:10356000EEE00C942B1C81E090E0F8940C94421C4B
:10357000FB01DC0102C001900D9241505040D8F790
:103580000895FB01DC0105900D920020E1F70895FC
:10359000FC0105900020E9F7809590958E0F9F1F04
:1035A00008950E94131B08F481E00895E89409C06F
:1035B00097FB3EF490958095709561957F4F8F4F66
:1035C0009F4F9923A9F0F92F96E9BB279395F6957C
:1035D000879577956795B795F111F8CFFAF4BB0FFA
:1035E00011F460FF1BC06F5F7F4F8F4F9F4F16C05E
:1035F000882311F096E911C0772321F09EE8872FE8
:10360000762F05C0662371F096E8862F70E060E0A3
:103610002AF09A95660F771F881FDAF7880F96951C
:10362000879597F90895990F0008550FAA0BE0E8C0
:10363000FEEF16161706E807F907C0F01216130674
:10364000E407F50798F0621B730B840B950B39F4B4
:103650000A2661F0232B242B252B21F408950A261A
:1036600009F4A140A6958FEF811D811D08950E9448
:103670004A1B0C94BB1B0E94AD1B38F00E94B41B6C
:1036800020F0952311F00C94A41B0C94AA1B112478
:103690000C94EF1B0E94CC1B70F3959FC1F3950F08
:1036A00050E0551F629FF001729FBB27F00DB11DC6
:1036B000639FAA27F00DB11DAA1F649F6627B00D56
:1036C000A11D661F829F2227B00DA11D621F739F3F
:1036D000B00DA11D621F839FA00D611D221F749F4D
:1036E0003327A00D611D231F849F600D211D822F94
:1036F000762F6A2F11249F5750409AF0F1F08823BB
:103700004AF0EE0FFF1FBB1F661F771F881F9150E7
:103710005040A9F79E3F510580F00C94A41B0C94D7
:10372000EF1B5F3FE4F3983ED4F38695779567955A
:10373000B795F795E7959F5FC1F7FE2B880F911D11
:103740009695879597F9089597F99F6780E870E0B7
:1037500060E008959FEF80EC089500240A94161607
:10376000170618060906089500240A94121613066F
:10377000140605060895092E0394000C11F48823FD
:1037800052F0BB0F40F4BF2B11F460FF04C06F5F19
:103790007F4F8F4F9F4F089557FD9058440F551FEF
:1037A00059F05F3F71F04795880F97FB991F61F0C3
:1037B0009F3F79F087950895121613061406551F3A
:1037C000F2CF4695F1DF08C0161617061806991FA6
:1037D000F1CF86957105610508940895E894BB279B
:1037E00066277727CB0197F90895F999FECF92BD07
:1037F00081BDF89A992780B50895262FF999FECFB3
:103800001FBA92BD81BD20BD0FB6F894FA9AF99AFD
:103810000FBE019608952F923F924F925F926F9242
:103820007F928F929F92AF92BF92CF92DF92EF9250
:10383000FF920F931F93CF93DF93CDB7DEB7CA1BD1
:10384000DB0B0FB6F894DEBF0FBECDBF09942A88FC
:10385000398848885F846E847D848C849B84AA84A4
:10386000B984C884DF80EE80FD800C811B81AA8131
:10387000B981CE0FD11D0FB6F894DEBF0FBECDBFFC
:10388000ED01089510E0C6EED0E004C0FE010E94F4
:0E38900097172196C73ED107C9F7F894FFCFCE
:10389E00FF4D0D4D0DFFFFFFFF0000840580000062
:1038AE000000005C039B0D300300000000B40429EF
:1038BE0002CB05280200000000C5041F02230220CF
:1038CE0002000000002705DF05300300000000A7FE
:1038DE000D4E0D1101790D8D0DEE0D000000000E37
:1038EE000C4E0D00000000F001C001860177016949
:1038FE00016801000000004801F20B27015E03D1B0
:10390E0008490A000000003906E70200000000AF77
:10391E00024E0D6E616E00696E66006F7666000D6A
:02392E000A008D
:00000001FF
